:100000000C9434000C943E000C943E000C943E0082
:100010000C943E000C943E000C943E000C943E0068
:100020000C943E000C943E000C943E000C943E0058
:100030000C943E000C943E000C943E000C943E0048
:100040000C943E000C943E000C943E000C943E0038
:100050000C943E000C943E000C943E000C943E0028
:100060000C943E000C943E0011241FBECFEFD8E04C
:10007000DEBFCDBF0E946B000C947B000C9400008F
:100080000F931F93CF93DF9300D000D0CDB7DEB78F
:1000900019821A821B821C8209811A812B813C8160
:1000A000061717072807390768F409811A812B8179
:1000B0003C810F5F1F4F2F4F3F4F09831A832B83C4
:1000C0003C83EACF0F900F900F900F90DF91CF916C
:1000D0001F910F910895259A2D9A60EA76E881E0A4
:1000E00090E00E9440002D9860EA76E881E090E080
:0A00F0000E944000F1CFF894FFCF0A
:00000001FF
